:020000040800F2
:1000000010200020FD070008B1070008B107000814
:10001000B1070008B1070008B107000800000000A0
:10002000000000000000000000000000B107000810
:10003000B107000800000000B1070008B107000880
:10004000DFF8C41609680968C1F3C0110029F7D0A8
:10005000DFF8B4160968496860F30801DFF8A806FC
:1000600000684160DFF8A00600680068C0F38010F7
:100070000028F7D07047DFF8900600680068C0F3EA
:1000800040100028F7D0DFF8800600684068C0B252
:10009000704710B44FF6FF720B00591E9BB2002B35
:1000A00013D003785A40401C002302E092B2520859
:1000B0005B1CDBB2082BEFDAD407F7D592B25208FB
:1000C00082F4204292F00102F2E7100080B210BCEC
:1000D00070471CB58DF8000006208DF8010008005F
:1000E00080B2000A8DF802008DF80310100080B273
:1000F000000A8DF804008DF8052006216846FFF7F8
:10010000C8FF01008DF8061080B2000A8DF80700C4
:10011000DFF8F8050068406950F01000DFF8EC15D2
:1001200009684861002404E06846205CFFF788FF06
:10013000641C082CF8DBDFF8D00500680068C0F309
:1001400080100028F7D0DFF8C4050068406930F05F
:100150001000DFF8B8150968486113BD10B584B008
:100160008DF8040003208DF80500080080B2000A15
:100170008DF806008DF80710100080B2000A8DF887
:1001800008008DF80920062101A8FFF782FF010071
:100190008DF80A1080B2000A8DF80B000020009044
:1001A00002E00098401C009000986428F9DBDFF81A
:1001B0005C050068406950F01000DFF850150968D0
:1001C0004861002404E001A8205CFFF739FF641CAB
:1001D000082CF8DBDFF8300500680068C0F38010F9
:1001E0000028F7D00020009002E00098401C00900A
:1001F00000986428F9DBDFF814050068406930F0E6
:100200001000DFF80815096848611FBD70B50400CB
:100210000D0044F2402000260EE0DFF8EC140968DF
:100220000968C1F34011002906D0FFF724FFF6B298
:100230003055761C48F2A0600100481E89B20029A2
:1002400005D03100C9B289B2ADB2A942E5D33000C0
:10025000C0B270BD81B0DFF8B8040068006850F427
:100260008030DFF8AC1409680860DFF8A404006887
:100270000068C0F340400028F7D00020009002E062
:100280000098401C0090009842F210718842F7DB01
:10029000DFF87C040068406850F48000DFF87014D8
:1002A000096848600420DFF868140968496860F349
:1002B0000501DFF85C04006841604820DFF8501455
:1002C0000968496860F38E11DFF8440400684160F2
:1002D0000220DFF83C140968496860F31141DFF837
:1002E000300400684160DFF828040068006830F4DA
:1002F0008020DFF81C1409680860DFF81404006827
:10030000806830F0F000DFF8081409688860042085
:10031000DFF8FC130968896860F38C21DFF8F003CB
:1003200000688160DFF8E8030068806830F46040AE
:10033000DFF8DC1309688860DFF8D4030068006820
:1003400050F08070DFF8C81309680860DFF8C00358
:1003500000680068C0F340600028F7D000200090DB
:1003600002E00098401C00900098DFF8A813884233
:10037000F7DB0220DFF898130968896860F3010150
:10038000DFF88C0300688160DFF884030068806810
:10039000C0F381000228F7D101B0704700B589B0E1
:1003A000FFF758FFDFF868030068006B50F00800A3
:1003B000DFF85C1309680863DFF854030068006B1A
:1003C00050F00100DFF8481309680863DFF84003C4
:1003D0000068006B50F00200DFF83413096808630E
:1003E000CB480068006B50F00400C94909680863F5
:1003F000C7480068406C50F01000C549096848645F
:10040000C3480068406C50F02000C1490968486446
:100410000120C1490968096860F31961BE48006894
:1004200001600120BC490968096860F39B61BA4812
:10043000006801600120B8490968096860F31D710E
:10044000B54800680160B4480068406830F48050E6
:10045000B14909684860B0480068406830F400500D
:10046000AD4909684860AC480068406830F4804095
:10047000A949096848600220A7490968896860F3AA
:100480001961A548006881600220A349096889684C
:1004900060F39B61A0480068816002209E49096862
:1004A000896860F31D719C4800688160022097494B
:1004B0000968096860F30D31944800680160022002
:1004C00092490968096860F38F31904800680160BB
:1004D00007208E490968096A60F31B618B48006830
:1004E0000162072089490968096A60F31F7187481A
:1004F0000068016285480068806850F44050834974
:100500000968886081480068806850F440407F49ED
:100510000968886001207D490968C96860F30D3168
:100520007A480068C160012078490968C96860F3A9
:100530008F3176480068C1600120744909680968F4
:1005400060F30921714800680160704800684068E4
:1005500030F010006D490968486002206B49096855
:10056000896860F30921694800688160674800680C
:10057000C06830F4407065490968C8606348006825
:10058000406930F010006149096848619C205E496B
:100590000968896860F30F115B4800688160042076
:1005A00059490968896860F3030157480068816008
:1005B00055480068C06830F4005053490968C86065
:1005C00051480068C06850F008004F490968C86089
:1005D0004D480068C06850F004004B490968C86085
:1005E00049480068C06850F4805047490968C860AD
:1005F00045480068C06850F4806043490968C86095
:1006000041480068C06830F400703F490968C8601C
:100610000020009002E00098401C0090009842F2F8
:1006200010718842F7DB38480068C06850F4005009
:1006300035490968C86038480068406950F48050FE
:10064000354909684861022210210120FFF741FD68
:1006500031480068406930F480502F49096848618A
:100660000020009002E00098401C009000982B4968
:100670008842F8DB28480068406950F40050264959
:1006800009684861012210210120FFF767FD202140
:1006900001A8FFF7BBFD20490968496931F4005101
:1006A0001D4A12685161C0B207281ADB9DF8070085
:1006B0009DF8081051EA002080B2022808D116489F
:1006C0000068406950F4804013490968486110E0AF
:1006D00011480068406930F480400F49096848615A
:1006E00007E00D480068406930F480400A49096815
:1006F0004861002000900098094988429BDA0098E0
:10070000401C0090F7E700000C00002004000020CF
:100710000000002020A1070008000020A0860100A2
:1007200040420F0010B450F8041B79B102684368CE
:1007300012180830DC0744BFA9F10104E31852F88D
:10074000044B43F8044B091FF9D1ECE710BC704788
:1007500010B5074979441831064C7C44163404E03E
:100760000A68081D511888470146A142F8D110BDFA
:100770002C0000003C0000004EF68851CEF2000133
:10078000086840F470000860BFF34F8FBFF36F8FAD
:100790004FF00070E1EE100A7047000089FFFFFF84
:1007A00010000000480000000000002000000000D1
:1007B000FEE700000120C046002801D0FFF7C8FF77
:1007C0000020C046C046FFF7E9FD00F000F800F049
:1007D00001B800000746384600F002F8FBE70000C9
:1007E0002021090326311820ABBEF9E7003802406A
:1007F00000040240000C024000100140C046C04608
:08080000FFF7BAFFFFF7D6FF76
:04000005080007FDEB
:00000001FF
