:020000040800F2
:1000000010200020610800081508000815080008E5
:100010001508000815080008150800080000000071
:1000200000000000000000000000000015080008AB
:100030001508000800000000150800081508000851
:10004000DFF8D8060078002820D1002005E0DFF88E
:10005000D02680B222F81010401C80B2FF2811DC9C
:100060000100002202E089B24908521CD2B2082ADB
:10007000EDDACB07F7D589B2490881F4204191F038
:100080000101F2E70120DFF894160870704730B4E0
:100090004FF6FF7200230BE09BB21C5C544092B2FF
:1000A000DFF87C56E4B235F8144094EA12225B1C67
:1000B0009BB289B28B42EFD3100080B230BC704744
:1000C000DFF8601609680968C1F3C0110029F7D08C
:1000D000DFF850160968496860F30801DFF8440644
:1000E00000684160DFF83C0600680068C0F38010DB
:1000F0000028F7D07047DFF82C0600680068C0F3CE
:1001000040100028F7D0DFF81C0600684068C0B235
:1001100070471CB58DF8000006208DF8010008001E
:1001200080B2000A8DF802008DF80310100080B232
:10013000000A8DF804008DF8052006216846FFF7B7
:10014000A6FF01008DF8061080B2000A8DF80700A6
:10015000DFF8D4050068406950F01000DFF8C815DA
:1001600009684861002404E06846205CFFF7A8FFA6
:10017000641C082CF8DBDFF8AC0500680068C0F3ED
:1001800080100028F7D0DFF8A0050068406930F043
:100190001000DFF894150968486113BD10B584B0EC
:1001A0008DF8040003208DF80500080080B2000AD5
:1001B0008DF806008DF80710100080B2000A8DF847
:1001C00008008DF80920062101A8FFF760FF010053
:1001D0008DF80A1080B2000A8DF80B000020009004
:1001E00002E00098401C009000986428F9DBDFF8DA
:1001F00038050068406950F01000DFF82C150968D8
:100200004861002404E001A8205CFFF759FF641C4A
:10021000082CF8DBDFF80C0500680068C0F38010DC
:100220000028F7D00020009002E00098401C0090C9
:1002300000986428F9DBDFF8F0040068406930F0CA
:100240001000DFF8E414096848611FBD70B50400B0
:100250000D0044F2402000260EE0DFF8C8140968C3
:100260000968C1F34011002906D0FFF744FFF6B238
:100270003055761C48F2A0600100481E89B2002962
:1002800005D03100C9B289B2ADB2A942E5D3300080
:10029000C0B270BD81B0DFF894040068006850F40B
:1002A0008030DFF8881409680860DFF8800400688F
:1002B0000068C0F340400028F7D00020009002E022
:1002C0000098401C0090009842F210718842F7DBC1
:1002D000DFF858040068406850F48000DFF84C14E0
:1002E000096848600420DFF844140968496860F32D
:1002F0000501DFF83804006841604820DFF82C145D
:100300000968496860F38E11DFF8200400684160D5
:100310000220DFF818140968496860F31141DFF81A
:100320000C0400684160DFF804040068006830F4E1
:100330008020DFF8F81309680860DFF8F003006830
:10034000806830F0F000DFF8E4130968886004206A
:10035000DFF8D8130968896860F38C21DFF8CC03D3
:1003600000688160DFF8C4030068806830F4604092
:10037000DFF8B81309688860DFF8B0030068006828
:1003800050F08070DFF8A41309680860DFF89C0360
:1003900000680068C0F340600028F7D0002000909B
:1003A00002E00098401C00900098DFF88413884217
:1003B000F7DB0220DFF874130968896860F3010134
:1003C000DFF8680300688160DFF860030068806818
:1003D000C0F381000228F7D101B0704700B589B0A1
:1003E000FFF72EFEFFF756FFDFF840030068006BB3
:1003F00050F00800DFF8341309680863CB48006840
:10040000006B50F00100C94909680863C7480068DB
:10041000006B50F00200C54909680863C3480068D2
:10042000006B50F00400C14909680863BF480068C8
:10043000406C50F01000BD4909684864BB48006832
:10044000406C50F02000B949096848640120B9495E
:100450000968096860F31961B64800680160012005
:10046000B4490968096860F39B61B248006801609B
:100470000120B0490968096860F31D71AD48006842
:100480000160AC480068406830F48050A9490968B0
:100490004860A8480068406830F40050A5490968E1
:1004A0004860A4480068406830F48040A149096869
:1004B000486002209F490968896860F319619D4876
:1004C0000068816002209B490968896860F39B612C
:1004D000984800688160022096490968896860F33D
:1004E0001D7194480068816002208F49096809687D
:1004F00060F30D318C480068016002208A49096868
:10050000096860F38F3188480068016007208649D8
:100510000968096A60F31B6183480068016207206B
:1005200081490968096A60F31F717F4800680162A8
:100530007D480068806850F440507B4909688860B5
:1005400079480068806850F44040774909688860BD
:10055000012075490968C96860F30D317248006867
:10056000C160012070490968C96860F38F316E4825
:100570000068C16001206C490968096860F30921BD
:1005800069480068016068480068406830F0100001
:10059000654909684860022063490968896860F311
:1005A00009216148006881605F480068C06830F4D4
:1005B00040705D490968C8605B480068406930F078
:1005C00010005949096848619C20564909688968A2
:1005D00060F30F1153480068816004205149096895
:1005E000896860F303014F48006881604D480068E6
:1005F000C06830F400504B490968C8604948006839
:10060000C06850F0080047490968C860454800685C
:10061000C06850F0040043490968C8604148006858
:10062000C06850F480503F490968C8603D48006880
:10063000C06850F480603B490968C8603948006868
:10064000C06830F4007037490968C8600020009025
:1006500002E00098401C0090009842F2107188421D
:10066000F7DB30480068C06850F400502D49096835
:10067000C86007E02F480068406930F480402D4989
:10068000096848612B480068406950F48050294946
:1006900009684861022210210120FFF73AFD254830
:1006A0000068406930F48050224909684861214857
:1006B0000068406950F400501E49096848610122F1
:1006C00010210120FFF76AFD202101A8FFF7BEFDE0
:1006D00018490968496931F40051164A1268516194
:1006E000C0B20728C6DB9DF807009DF8081051EA44
:1006F000002080B2022808D10E480068406950F4FA
:1007000080400C4909684861BCE70A4800684069B4
:1007100030F48040074909684861B3E7102200209F
:10072000102000200C000020040000200000002009
:1007300020A107000800002019E050F8041BCB0797
:1007400044BFA9F101035918121F0023042A41F8DC
:10075000043BF9D25FEA827C0B4604D54FF0000CD3
:10076000A1F800C09B1CD10744BF0021197050F8AC
:10077000042B002AE1D1704710B450F8041B79B162
:100780000268436812180830DC0744BFA9F101046D
:10079000E31852F8044B43F8044B091FF9D1ECE776
:1007A00010BC704710B5074979441831064C7C4499
:1007B000163404E00A68081D511888470146A14212
:1007C000F8D110BD2C0000004C0000004EF68851FE
:1007D000CEF20001086840F470000860BFF34F8F4C
:1007E000BFF36F8F4FF00070E1EE100A704700000A
:1007F00049FFFFFF0402000010200020000000005D
:1008000079FFFFFF100000004800000000000020FA
:1008100000000000FEE700000120C046002801D0D3
:10082000FFF7C0FF0020C046C046FFF7D7FD00F02D
:1008300000F800F001B800000746384600F002F862
:10084000FBE700002021090326311820ABBEF9E7A1
:100850000038024000040240000C02400010014039
:0C086000C046C046FFF7B2FFFFF7D6FF0E
:040000050800086186
:00000001FF
